:100000000C942A000C940F070C9447000C944700A2
:100010000C9447000C9447000C941D080C94470066
:100020000C9447000C9447000C9496070C944700DE
:100030000C9447000C9447000C9447000C94470024
:100040000C9447000C9447000C9447000C94470014
:100050000C94470011241FBECFE5D8E0DEBFCDBF12
:1000600011E0A0E6B0E0E0E4F6E102C005900D92F8
:10007000A638B107D9F721E0A6E8B1E001C01D928A
:10008000AA3AB207E1F70E9440080C941E0B0C94A8
:10009000000082E00E949F0410928601089580E093
:1000A0000E949F0410928801089581E00E949F049D
:1000B00010928701089580918B0190918C01089591
:1000C00096EF980F9932A0F496EF960F993280F43C
:1000D00092E0980F691760F096EF940F913540F415
:1000E00080936200609361004093600081E0089516
:1000F00080E00895809162000895809161000895E4
:10010000809160000895CF93C62F20918B0130918C
:100110008C012130310561F4623050F48130910559
:1001200060F4613039F482E00E949004C09386014B
:10013000CF910895CF910C94490069F4613041F456
:100140000E94550080E00E949004C0938801F0CF87
:10015000CF910C944F00029759F7613041F40E94FF
:100160004F0081E00E949004C0938701E1CFCF91BE
:100170000C9455008091860108958091880108951E
:100180008091870108958091890190918A01089555
:100190000E944F000E9455000E9449000E94950253
:1001A00041E067E083E00E947F0485E0809389015D
:1001B00010928A0108950E944F000E9455000E94EB
:1001C00049000E949A0241E067E083E00E948504B2
:1001D0001092890110928A01089510928B01109259
:1001E0008C011092890110928A0182E18093620051
:1001F00088E28093610083E2809360000C94DB00CE
:10020000CF93DF93EC01039730F40E94DB00C0939F
:100210008B01D0938C01DF91CF910895CF93DF9321
:10022000C82FD62F853610F4653620F0DF91CF9198
:100230000C94C80080918B0190918C01009721F45F
:10024000DF91CF910C94DB000297B1F480916100B3
:10025000C81738F10E94550080E00E94900481E0A8
:1002600080938801809160008D17E8F182E00E9400
:10027000900481E08093860185EF8C0F873210F423
:10028000DB30B8F50E94950241E067E083E00E9410
:100290007F0484E08093890110928A01DF91CF91DD
:1002A0000895909162009C1748F00E944F0081E0F1
:1002B0000E94900481E080938701D4CF90918801BF
:1002C000913029F482508C1710F00E944F008091D9
:1002D0008701813039F6809162008E5FC81710F275
:1002E0000E945500BFCF8B5FD81730F20E944900A3
:1002F000C3CF0E949A0241E067E083E00E94850438
:1003000080916100C81710F081E0C4CF8091620035
:100310008C1710F082E0BECF809160008D1710F036
:1003200083E0B8CF1092890110928A01B7CF81E0A3
:1003300080938D0108950E94790460E080E00E941E
:100340006C048BE790E00E94220460E081E00E9450
:100350006C0484E890E00C942204CF93DF930F9216
:10036000CDB7DEB7898360E00E946C0482E990E03B
:100370000E94220460E089810F90DF91CF910C945C
:100380006C040E94790460E080E00E946C0483EABF
:1003900090E00E94220460E081E00E946C0481EB06
:1003A00090E00C942204813019F481E30C94110440
:1003B00080E3FCCF80E00E94AD0180EC90E00E94E1
:1003C00022040E94BA000E94D30187EC90E00E94B0
:1003D00022040E94BD000E94D3018BEC90E00E9499
:1003E00022040E94C0000E94D30181E00E94AD015E
:1003F0008FEC90E00C942204CF93C82F8436B0F099
:1004000064E60E94DC0A805D0E9411048C2F6AE081
:100410000E94DC0AC92F0E94DC0A80E3890F0E9437
:10042000110480E38C0FCF910C9411048A30C8F32F
:100430006AE00E94DC0AC92F805DF1CF0E94790436
:1004400060E080E00E946C0480919E0190919F0189
:1004500084309105C1F48FED90E00E94220460E0A9
:1004600081E00E946C0480919A01811114C08AE09D
:1004700091E00E94220465E081E00E946C048DE01E
:1004800091E00C942204059719F48DEE90E0E5CFED
:100490008BEF90E0E2CF80919B010E94FC01EBCFBB
:1004A00080E00E94AD0186E191E00E9422048091EB
:1004B0009D010E94FC018BE191E00E942204809149
:1004C0009C010E94FC0181E00E94AD010E94C300DA
:1004D0008130910560F48FE191E00E94220469E08F
:1004E00081E00E946C048BE491E00C94220419F4E6
:1004F00082E291E0F2CF8230910519F487E291E037
:10050000ECCF8330910519F48BE291E0E6CF843093
:10051000910519F48FE291E0E0CF059719F488E393
:1005200091E0DBCF83E491E0D8CF41E066E083E067
:100530000C940B0640E066E083E00C940B0641E06F
:1005400066E083E00E949E050C949A02CF93DF93AD
:1005500000D00F92CDB7DEB787E790E08A839B8308
:10056000EA81FB812191EA83FB83298341E0622FA9
:1005700081E00E949E0541E0698181E00E940B06B6
:100580008A819B818B57904059F783E790E08A835B
:100590009B83EA81FB812191EA83FB83298340E0ED
:1005A000622F81E00E949E0541E0698181E00E9406
:1005B0000B068A819B818757904059F70F900F90C7
:1005C0000F90DF91CF9108958F929F92AF92BF923B
:1005D000CF92DF92EF92FF920F931F93CF93DF930F
:1005E00000D000D00F92CDB7DEB781E0898327E736
:1005F000A22E20E0B22E00E010E06E018FEFC81AAC
:10060000D80AF501F081FA8340E06F2F81E00E9463
:100610000B0693E7892E90E0992EE12CF12CF40142
:10062000F081FB83A6016F2F81E00E94780689810B
:10063000CC82DD82811139C08FE39CE90197F1F70B
:1006400000C00000A6016B8181E00E9478068981CC
:1006500081112BC08981811509F141E06A8181E016
:100660000E940B06000F111F000F111F0D591F4F85
:10067000F801EE0DFF1D80810F900F900F900F90ED
:100680000F90DF91CF911F910F91FF90EF90DF902E
:10069000CF90BF90AF909F908F9008954C815D81D7
:1006A0006B8181E00E947806D5CF9FEF891A990A65
:1006B000EFEFEE1AFE0AF4E0EF16F10409F0AFCF07
:1006C0008FEFA81AB80A41E06A8181E00E940B0608
:1006D0000F5F1F4F0430110509F093CF8FEFCCCF80
:1006E000CF93C82F482F417064E082E00E940B0630
:1006F000C1FB442740F965E082E00E940B06C2FB83
:10070000442740F966E082E00E940B064C2F469594
:100710004695469567E082E00E940B0641E063E063
:1007200082E00E940B0682E08A95F1F700C040E06B
:1007300063E082E00E940B0687EC90E00197F1F7FE
:1007400000C00000CF910895CF93C82F40E062E031
:1007500082E00E940B068C2F82958F700E9470039E
:100760008C2F8F700E947003C150C23030F48FE91B
:100770009FE00197F1F700C00000CF91089541E09C
:1007800062E082E00E949E0541E063E082E00E9418
:100790009E0541E064E082E00E949E0541E065E044
:1007A00082E00E949E0541E066E082E00E949E0594
:1007B00041E067E082E00E949E0540E062E082E066
:1007C0000E940B0640E063E082E00E940B068FE38C
:1007D0009CE90197F1F700C0000083E00E947003DC
:1007E0008FE097E20197F1F700C0000083E00E94DC
:1007F00070038BE291E00197F1F700C0000083E005
:100800000E94700382E00E94700388E20E94A403A9
:100810008CE00E94A40386E00E94A40381E00C9473
:10082000A403CF93C82F41E062E082E00E940B0650
:100830008C2F82958F700E9470038C2F8F70CF91B8
:100840000C947003CF93DF93EC01892B31F4DF918B
:10085000CF91089521960E94110488818111FACFC9
:10086000F6CF1F93CF93DF9300D000D00F92CDB778
:10087000DEB79C0110E0892B59F480E30F900F90B4
:100880000F900F900F90DF91CF911F910C94110456
:10089000C9016AE070E00E94E80AFE013196E10FAA
:1008A000F11D8083C9019B011F5F0A9788F7111111
:1008B00009C00F900F900F900F900F90DF91CF9184
:1008C0001F9108951150FE013196E10FF11D8081B5
:1008D000805D0E941104EBCF603150F4813020F430
:1008E000862F80680C94A40319F480E4860FF9CF56
:1008F000089581E00C94A40341E00C949E054130DE
:1009000011F40C940B06E8F30895413019F440E01B
:100910000C940B0610F441E0FBCF08950C94A9064B
:10092000813031F0823049F064E0811511F0089592
:1009300065E041E083E00C940B0663E0FACF813080
:1009400031F0823049F064E0811511F0089565E0DE
:1009500040E083E00C940B0663E0FACF41E064E0F2
:1009600083E00E949E0541E065E083E00E949E05D1
:1009700041E063E083E00E949E0580E00E949F04C6
:1009800081E00E949F0482E00C949F0440E061E0BB
:1009900080E00E949E0540E061E080E00E940B063E
:1009A0000C945C05EF92FF921F93CF93DF9300D0DE
:1009B000CDB7DEB77C0119821A82009751F410E09E
:1009C000812F0F900F90DF91CF911F91FF90EF90AB
:1009D0000895FC011082BE016F5F7F4F81E00E948D
:1009E0006705182F813059F789819A8124E600978D
:1009F00099F020E08F3FF3E09F0770F42FEF33E092
:100A0000281B390BA4E6B0E00E94CD0A2FEF33E09B
:100A100040E050E00E94FC0AF7012083D1CF40E083
:100A200060E080E00E949E0540E060E080E00E947F
:100A30000B060C945C05EF92FF921F93CF93DF930C
:100A400000D0CDB7DEB77C0119821A82009751F42D
:100A500010E0812F0F900F90DF91CF911F91FF90A9
:100A6000EF900895FC011082BE016F5F7F4F80E020
:100A70000E946705182F813059F729813A81A8E82B
:100A8000B3E10E94CD0A9B01AC01632F782F852F23
:100A900090E086957795679586957795679538392F
:100AA00047415105A8F62AE030E040E050E00E94BE
:100AB000FC0AF7012083CDCF3E9A3F983D9886B13E
:100AC000887F866086B935983398379A089588303C
:100AD000C0F461157105A9F0FB011082118297B174
:100AE000907E982B97B9369AA0E0B0E0CD01369B66
:100AF0000EC08035F3EC9F07A105B10521F43798AE
:100B0000379A80E008950196A11DB11DF0CF10978E
:100B1000934C8045A1F384B125B1FB0180832183EF
:100B200081E008959FB78FB78F778FBF84B78068B4
:100B300084BF84B7806884BF9FBF0895683068F51C
:100B4000413061F58230C1F058F481110CC08AB394
:100B500021E001C0220F6A95EAF7822B8ABB089533
:100B6000833099F0089587B321E001C0220F6A9580
:100B7000EAF7822B87BB089584B321E001C0220FDE
:100B80006A95EAF7822B84BB089581B321E001C006
:100B9000220F6A95EAF7822B81BB0895F0F7823025
:100BA000C1F058F481110CC02AB381E001C0880F54
:100BB0006A95EAF780958223D1CF833099F0089522
:100BC00027B381E001C0880F6A95EAF780958223F8
:100BD000D1CF24B381E001C0880F6A95EAF78095F0
:100BE0008223D1CF21B381E001C0880F6A95EAF753
:100BF00080958223D1CF823051F020F4811105C03D
:100C00006ABB0895833029F0089567BB089564BBDB
:100C1000089561BB0895683068F5413061F5823010
:100C2000C1F058F481110CC08BB321E001C0220F38
:100C30006A95EAF7822B8BBB0895833099F008956B
:100C400088B321E001C0220F6A95EAF7822B88BBA6
:100C5000089585B321E001C0220F6A95EAF7822B3F
:100C600085BB089582B321E001C0220F6A95EAF79F
:100C7000822B82BB0895F0F78230C1F058F48111C5
:100C80000CC02BB381E001C0880F6A95EAF780950C
:100C90008223D1CF833099F0089528B381E001C039
:100CA000880F6A95EAF780958223D1CF25B381E03A
:100CB00001C0880F6A95EAF780958223D1CF22B3CD
:100CC00081E001C0880F6A95EAF780958223D1CF31
:100CD000823051F020F4811105C06BBB0895833040
:100CE00029F0089568BB089565BB089562BB089517
:100CF000FA01683080F4309771F0823091F060F43E
:100D000081110DC089B390E002C0959587956A95D1
:100D1000E2F7817080830895833029F0089586B3C7
:100D2000F2CF83B3F0CF80B3EECFFB01309739F031
:100D3000823059F028F4811106C089B38083089568
:100D4000833029F0089586B3F9CF83B3F7CF80B30A
:100D5000F5CF683058F58230C1F058F481110CC0DD
:100D60008BB321E001C0220F6A95EAF782278BBB83
:100D70000895833099F0089588B321E001C0220FCF
:100D80006A95EAF7822788BB089585B321E001C000
:100D9000220F6A95EAF7822785BB089582B321E086
:100DA00001C0220F6A95EAF7822782BB089582303C
:100DB00071F030F4811107C08BB380958BBB08951F
:100DC000833049F0089588B3809588BB089585B332
:100DD000809585BB089582B3809582BB08958BB7BB
:100DE0008F7B8BBF85B78E7F85BF85B7826085BFC0
:100DF00080E48ABF089580E48ABF8BB780648BBF8C
:100E000008958BB78F7B8BBF0895009731F0809347
:100E1000A0019093A10181E0089580E008951F92C0
:100E20000F920FB60F9211242F933F934F935F931E
:100E30006F937F938F939F93AF93BF93EF93FF93A2
:100E4000E091A001F091A101309709F00995FF917F
:100E5000EF91BF91AF919F918F917F916F915F9132
:100E60004F913F912F910F900FBE0F901F901895AB
:100E70008FB780688FBF08958FB78F778FBF089522
:100E800083B78B7F83BF83B78D7F83BF83B78E7F0D
:100E900083BF83B7886083BF83B78F7B83BF83B7EC
:100EA0008F7D83BF83B78F7E83BF12BE8CE78CBFDD
:100EB00089B7826089BF1092A2011092A30110929B
:100EC000A4011092A501089583B78B7F83BF83B7D8
:100ED000826083BF83B7816083BF089583B78B7FB0
:100EE00083BF83B78D7F83BF83B78E7F83BF089512
:100EF000CF93CFB70E943C076091A2017091A301EC
:100F00008091A4019091A501CFBFCF910895CF9377
:100F1000CFB70E943C071092A2011092A301109239
:100F2000A4011092A501CFBFCF9108951F921FB6C3
:100F30001F9211248F939F93AF93BF938091A2012F
:100F40009091A301A091A401B091A5010196A11DCA
:100F5000B11D8093A2019093A301A093A401B0932B
:100F6000A501BF91AF919F918F911F901FBE1F90C0
:100F700018958EB58B7F8EBD8EB58D7F8EBD8EB54F
:100F80008E7F8EBD8EB58F7E8EBD8EB588608EBDF8
:100F90008FB58D7F8FBD8FB58E7F8FBD8FB58F77CE
:100FA0008FBD8FB58F7B8FBD8FB58F7D8FBD8FB57B
:100FB0008F7E8FBD1DBC1CBC1BBC8CE78ABD89B756
:100FC000806189BF1092A6011092A7011092A8011A
:100FD0001092A90108958EB58B7F8EBD8EB582606B
:100FE0008EBD8EB581608EBD08958EB58B7F8EBD12
:100FF0008EB58D7F8EBD8EB58E7F8EBD0895CF93BD
:10100000CFB70E943C076091A6017091A701809123
:10101000A8019091A901CFBFCF910895CF93CFB7E9
:101020000E943C071092A6011092A7011092A801FD
:101030001092A901CFBFCF9108951F921FB61F92A2
:1010400011248F939F93AF93BF938091A6019091AA
:10105000A701A091A801B091A9010196A11DB11D00
:101060008093A6019093A701A093A801B093A90132
:10107000BF91AF919F918F911F901FBE1F901895A8
:1010800000D000D00F92CDB7DEB70E94920540E0AD
:1010900062E083E00E949E0541E062E083E00E94FE
:1010A0000B060E94BF030E94A6020E94AE040E948B
:1010B0009F0267E083E00E947C0441E067E083E0F8
:1010C0000E9485040E940F050E94C6040E944007EA
:1010D0000E94EF0687E991E00E9405070E94FB0647
:1010E0000E9438070E9464070E94ED000E94790464
:1010F00060E080E00E946C0483E591E00E9422049D
:1011000060E081E00E946C048EE591E00E94220480
:101110000E94780769837A838B839C830E94780777
:10112000E980FA800B811C816E197F09800B910B7D
:101130006C3D75408105910588F30E949B010E94DA
:10114000780760939601709397018093980190932C
:1011500099010E94780760939201709393018093A4
:101160009401909395010E94780760938E0170938B
:101170008F0180939001909391011FEF1D838091C7
:101180008D01813089F510928D010E9478072091A0
:101190008E0130918F0140919001509191017B011E
:1011A0008C01E21AF30A040B150B9701A801283CE5
:1011B000310541055105C0F060938E0170938F0198
:1011C00080939001909391010E945B00029709F037
:1011D0008FC081E090E00E94000181E080939E0139
:1011E00010929F010E94DA010E94780720919601D7
:1011F0003091970140919801509199017B018C01A8
:10120000E21AF30A040B150B9701A801243F3140A1
:101210004105510510F160939601709397018093F9
:101220009801909399018DE991E00E941B058983B3
:101230008CE991E00E94D2041981113009F064C058
:10124000813009F061C00E945B00892B31F0609110
:101250009C0180919D010E940E010E9478072091BF
:1012600092013091930140919401509195017B013D
:101270008C01E21AF30A040B150B9701A801243F15
:1012800031404105510588F06093920170939301BC
:10129000809394019093950180919E0190919F017C
:1012A00081309105A1F50E94DA010E94E402898350
:1012B0008F3F09F44AC01D811F3F09F046C080914D
:1012C0009E0190919F018130910508F041C00981F4
:1012D000013311F581E090E00E94000181E08093EC
:1012E0009E0110929F010E94DA0111E319832DC023
:1012F00082E090E00E94000182E080939E011092C3
:101300009F010E94500270CF0E94C800A6CF029792
:1013100061F60E945002C9CF0981023369F482E06C
:1013200090E00E94000182E080939E0110929F0154
:101330000E94500212E3DACF0981033431F480E0D5
:1013400090E00E9400010E949B01E980ED8217CF8E
:1013500009F045C01981113351F40E94BA0091E09F
:10136000682F692780E090E00E948300BCCF09814C
:10137000023361F40E94BD0091E0682F692781E08B
:1013800090E00E9483000E94DA01D4CF19811333C8
:1013900069F40E94C00091E0682F692782E090E024
:1013A0000E9483000E94DA0113E3A0CF09810D336C
:1013B00049F483E080939E0110929F010E94C10135
:1013C0001DE394CF0981033409F0BFCF80E090E0A2
:1013D0000E94000110929E0110929F01B4CF8230B2
:1013E000910529F419811D3321F31334EDCF833096
:1013F000910509F051C00981013361F410929B01FC
:1014000010929A0184E080939E0110929F010E94A5
:101410001E026BCF1981123361F410929B0110925E
:101420009A0185E080939E0110929F010E941E0206
:1014300081CF0981033361F410929B0110929A01CC
:1014400086E080939E0110929F010E941E02ACCF05
:101450000981033409F079CF0E945B008130910546
:1014600041F480939E0190939F010E94DA0113E45E
:101470003DCF0E945B008230910539F480939E013C
:1014800090939F010E945002F2CF10929E01109201
:101490009F010E949B01EBCF9C0124503109233016
:1014A000310508F06BC0298120532A30B0F49091A7
:1014B0009A01923008F049CF80919B01E9802AE09F
:1014C000829FE00C11248E2D805380939B019F5F9F
:1014D00090939A010E941E0238CF0981033441F48F
:1014E00083E080939E0110929F010E94C101BFCFB3
:1014F00019811D3309F029CF20919A01211509F492
:101500005FCF8430910531F50E94800089830E946D
:101510007D004981682F80919B010E94600081308D
:1015200009F447CF87E080939E0110929F010E94AB
:10153000790460E080E00E946C0489E691E00E94FA
:10154000220460E081E00E946C0487E791E00E9441
:10155000220436CF059759F40E9480008D83E090D5
:101560009B01E9820E947A004D816981D6CFF0907B
:101570009B01FD820E947D008983F4CF079709F0CB
:10158000E4CE0981033409F0E0CE83E080939E012C
:1015900010929F010E94C101D8CEA29FB001B39FBB
:1015A000C001A39F700D811D1124911DB29F700D6C
:1015B000811D1124911D0895992778E0880F991FA6
:1015C000961708F0961B881F7A95C9F7809508959D
:1015D000AA1BBB1B51E107C0AA1FBB1FA617B70759
:1015E00010F0A61BB70B881F991F5A95A9F7809575
:1015F0009095BC01CD010895A1E21A2EAA1BBB1B38
:10160000FD010DC0AA1FBB1FEE1FFF1FA217B307CE
:10161000E407F50720F0A21BB30BE40BF50B661FE4
:10162000771F881F991F1A9469F7609570958095A8
:1016300090959B01AC01BD01CF010895F894FFCFB7
:101640002328123738392F3435362A3132332D4397
:10165000303D2B0405060700010203313A4D616E4F
:1016600075616C00323A4175746F20433A53746F60
:10167000700020202020202020202020202020203A
:10168000202000313A4D696E5420323A4D61785431
:1016900000333A4D6F69737420433A4261636B00C3
:1016A0004D414E20503A0020463A0020483A003141
:1016B0003A5020323A4620333A48203D3A53004DC2
:1016C000696E696D756D2054656D703A004D617875
:1016D000696D756D2054656D703A004D696E696D68
:1016E000756D204D6F6973743A005F5F003D3A4F2E
:1016F0004B20433A58004120543A00204D3A004FC5
:101700004B0048494748004C4F570044525900434A
:101710005249544943414C0053454E534F52204582
:10172000525200554E4B4E4F574E003D3A532043B8
:101730003A580057656C636F6D6520546F004772AF
:1017400065656E686F75736500496E76616C696476
:101750002056616C756500433A436F6E6669672079
:061760004D656E750000EE
:00000001FF
